:100B5E000410000000000423000000000109000141
:100B6E001C00020C0000020E00000214000002160F
:100B7E00000002180000021A0000021D0000021FF1
:0A0B8E00000002210000020A00002E
:100BBD00E4FDFCC3ED9FEC9E5015E4FBFA0BBB006E
:0F0BCD00010ABA04F8BBFBF50DBD00010C80E472
:010BDC0022F6
:03000B00020BDD08
:100BDD00C0E0C0D0C3E50994327480948050020502
:0C0BED0009758CFC758A67D0D0D0E0320E
:03000300020A10DE
:100A1000C0E0C0D075D000C000C001C002C003C09B
:100A200004C005C006C007850908750900758CFC5F
:100A3000758A67051CE508FB7A00C39432748094BC
:100A4000804011751CFE751300751200751100753C
:100A500010008069AF1CEF3395E0FEC36480948082
:100A6000403AEF9420EE648094805030C3EB9402BF
:100A7000EA648094804046E47F01FEFDFC741F958B
:100A80001CF9F8120BAAE5134FF513E5124EF512F7
:100A9000E5114DF511E5104CF5108021AF1CEF3339
:100AA00095E0FEC3EF9420EE64809480400F8513A0
:100AB00026851225851124851023751C00D007D0AA
:100AC00006D005D004D003D002D001D000D0D0D0C1
:020AD000E03212
:100BF900438901758CFC758A67D28CD2A9D288D2B7
:040C0900A8D2AF229C
:10080000C2A0C2A1C2A2C2A3C2A4C2A5C2A6C2A7BC
:10081000C287120BF9E4FFFEFDFCAB26AA25A92432
:10082000A823C3120B9960ED7F007EFF7D097CF643
:10083000A823C3120B997016E50D450C7009F50C31
:10084000750D01D2A08007E4F50CF50DC2A07F0064
:100850007EFF7D1D7CE2AB26AA25A924A823C31216
:100860000B997016E50F450E7009F50E750F01D244
:10087000A18007E4F50EF50FC2A17F007EFF7D1F6A
:100880007CE0AB26AA25A924A823C3120B997016D5
:10089000E51545147009F514751501D2A28007E419
:1008A000F514F515C2A27F007EFF7D0D7CF2AB260C
:1008B000AA25A924A823C3120B997016E51745167B
:1008C0007009F516751701D2A38007E4F516F51720
:1008D000C2A37F007EFF7D197CE6AB26AA25A92452
:1008E000A823C3120B997016E51945187009F5185D
:1008F000751901D2A48007E4F518F519C2A47F0088
:100900007EFF7D1B7CE4AB26AA25A924A823C31265
:100910000B997016E51B451A7009F51A751B01D263
:10092000A58007E4F51AF51BC2A57F007EFF7D11A7
:100930007CEEAB26AA25A924A823C3120B99701616
:10094000E51E451D7009F51D751E01D2A68007E440
:10095000F51DF51EC2A67F007EFF7D157CEAAB2645
:10096000AA25A924A823C3120B997016E520451FB8
:100970007009F51F752001D2A78007E4F51FF52047
:10098000C2A77F007EFF7D177CE8AB26AA25A9249D
:10099000A823C3120B997016E52245217009F52191
:1009A000752201D2868007E4F521F522C2867F00F8
:1009B0007EFF7D127CEDAB26AA25A924A823C312B5
:1009C0000B997016E50B450A7009F50A750B01D2F3
:1009D000878007E4F50AF50BC2877F007EFF7D1C48
:1009E0007CE3AB26AA25A924A823C3120B99701473
:1009F000C2A0C2A1C2A2C2A3C2A4C2A5C2A6C2A7CB
:100A0000C286C287E4F526F525F524F523020815EC
:03000000020AD21F
:0C0AD200787FE4F6D8FD758126020B1930
:100B9900EB9FF5F0EA9E42F0E99D42F0E89C45F0B2
:010BA9002229
:100BAA00E8600FEFC333FFEE33FEED33FDEC33FCA9
:030BBA00D8F1224D
:100ADE00020800E493A3F8E493A34003F68001F226
:100AEE0008DFF48029E493A3F85407240CC8C33319
:100AFE00C4540F4420C8834004F456800146F6DFE8
:100B0E00E4800B0102040810204080900B5EE47E0E
:100B1E00019360BCA3FF543F30E509541FFEE493DC
:100B2E00A360010ECF54C025E060A840B8E493A3A3
:100B3E00FAE493A3F8E493A3C8C582C8CAC583CACE
:100B4E00F0A3C8C582C8CAC583CADFE9DEE780BE86
:010B9800005C
:00000001FF
