:030E300025750025
:100DC5000D242020436F756E74657220203A000D46
:100DD5003F53657420636F756E7420203A00023DA1
:020DE50000000C
:100DE800E4FDFC7F38120E0FE4FDFC7F0C120E0FA1
:0E0DF800E4FDFC7F80120E0F758905020B5C76
:0E0E2100E4FFFE0FBF00010EBE07F8BFD1F5C3
:010E2F0022A0
:100B5C00E4F58AD28CC392B1F53BF53C7424120EA9
:100B6C0006053CE53C7002053BC3940CE53B6480F8
:100B7C00948040E8E4FDFC7FC0120E0FE4F53BF5D9
:100B8C003C743F120E06053CE53C7002053BC394D9
:100B9C000CE53B6480948040E8E4FDFC7F8C120EF5
:100BAC000FAF8CEFAD8AF522EDF523750BFF750CAD
:100BBC000E750D3085220EF50F7B007A00793112FF
:100BCC00085CE4F53BF53C7431120E06053CE53C43
:100BDC007002053BC39405E53B6480948040E8E4D7
:100BEC00FDFC7FCC120E0F750BFF750C0E750D30C6
:100BFC00853D0E853E0F7B007A00793512085CE44A
:100C0C00F539F53A7435253A120E08053AE53A707D
:100C1C00020539C39405E5396480948040E620854B
:100C2C0002D2B1208602C2B1208709E4F522F52355
:100C3C00F53DF53ED3E5239400E5229400400CE508
:100C4C003EB52307E53DB52202C2B1208208053E20
:100C5C00E53E7002053D20830B740A253EF53EE40B
:100C6C00353DF53D308403020BA57464253EF53EFD
:080C7C00E4353DF53D020BA536
:090E0600253CF8E6FF7D017C00AB
:100E0F008F90EC4D24FF92B6D2B7120E21C2B702CB
:020E1F000E21A2
:03000000020D12DC
:0C0D1200787FE4F6D8FD75814B020D5986
:10080000E517240BF8E60517227808300702780B65
:10081000E475F001120CDC020C842000EB7F2ED278
:10082000008018EF540F2490D43440D4FF30040BD0
:10083000EF24BFB41A0050032461FFE518600215CD
:1008400018051BE51B7002051A30070D7808E475C2
:10085000F001120CDCEF020CCA020D9E7403D207E9
:100860008003E4C207F5178B088A09890AE4F518A2
:10087000F51AF51BE51860077F2012083B80F57517
:1008800019FFC201C200C202C203C205C206C208E9
:10089000120809FF700D3007057F0012084CAF1BCE
:1008A000AE1A22B4255FC2D5C204120809FF24D0B3
:1008B000B40A00501A75F00A781830D50508B6FF4A
:1008C0000106C6A426F620D5047002D20380D924DE
:1008D000CFB41A00EF5004C2E5D204020A4CD20190
:1008E00080C6D20080C0D20280BCD2D580BAD205E8
:1008F00080B47F2012083B2002077401B518004025
:10090000F1120800FF12083B020874D208D20680D8
:1009100095120800FB120800FA120800F94A4B7001
:1009200006791D7A0B7BFF20022EE518602A7E00D7
:100930008E82758300120C9D60060EEE651970F0B4
:10094000C2D5EBC0E0EAC0E0E9C0E0EE120A93D005
:10095000E0F9D0E0FAD0E0FB120C84FF60AAEBC013
:10096000E0EAC0E0E9C0E012083BD0E02401F9D0A1
:10097000E03400FAD0E0FBE5190460DCD519D98039
:10098000877BFF7A0A798FD202809C791080027966
:1009900008C206C2088008D2D5790A8004790AC242
:1009A000D5E519047002F519E4FAFDFEFF120800FE
:1009B000FC7B08200113120800FD7B1030000A1296
:1009C0000800FE120800FF7B20EC3382D592D55040
:1009D00013C3E43000069FFFE49EFEE42001039D64
:1009E000FDE49CFCE4CBF8C201EC700CCFCECDCC86
:1009F000E824F8F870F38017C3EF33FFEE33FEED11
:100A000033FDEC33FCEB33FB994002FB0FD8E9EBF1
:100A1000300105F8D0E0C448B201C0E00AEC4D4E08
:100A20004F78207B0070C2EAB5190040BCC0E012CC
:100A30000A95D0F0D0E0200104C4C0E0C4B201C0E7
:100A4000F0120824D0F0D5F0EB020874120CEC0977
:100A50001153098B5808E24C08DE42098F4F099761
:0F0A60004409974908F743099D550981460981C3
:100A6F00450981470B3D5008E62D08EA2E090D2B4D
:100A7F0008EE23090B200B262A08A64800000905BB
:100A8F003F3F3F00790AA2D5200314300509B91062
:100A9F00020404B9080104A2D52006025001042063
:100AAF0002689202B518005034C0E07F203003195D
:100ABF007F30A20272067205500F120AECC202C2F8
:100ACF0006C205C2087F30800F300503E9C0E0126F
:100ADF00083B300503D0E0F9D0E0B518CC3005174E
:100AEF007F30B9100C12083B7F583004077F788095
:100AFF0003B9080312083B3002057F2D02083B7F24
:100B0F00202008F87F2B2006F322920280CF286E38
:100B1F00756C6C2900D2011208003001F8C20178FF
:100B2F001830D50108F60208A62D5043495812086F
:100B3F00002403B405004001E4900B389312082CF5
:0D0B4F00743A12082CD20375180402098BA9
:100D1E00020DE8E493A3F8E493A34003F68001F2F6
:100D2E0008DFF48029E493A3F85407240CC8C333D6
:100D3E00C4540F4420C8834004F456800146F6DFA5
:100D4E00E4800B0102040810204080900DC5E47E63
:100D5E00019360BCA3FF543F30E509541FFEE4939A
:100D6E00A360010ECF54C025E060A840B8E493A361
:100D7E00FAE493A3F8E493A3C8C582C8CAC583CA8C
:100D8E00F0A3C8C582C8CAC583CADFE9DEE780BE44
:010DE700000B
:100C8400BB010689828A83E0225002E722BBFE026E
:090C9400E32289828A83E49322A1
:100C9D00BB010CE58229F582E5833AF583E022500C
:100CAD0006E92582F8E622BBFE06E92582F8E22256
:0D0CBD00E58229F582E5833AF583E4932270
:100CCA00BB010689828A83F0225002F722BBFE0109
:020CDA00F32203
:100CDC00FAE6FB0808E6F925F0F618E6CA3AF62219
:100CEC00D083D082F8E4937012740193700DA3A397
:100CFC0093F8740193F5828883E4737402936860AB
:060D0C00EFA3A3A380DFAA
:100D9E00EFB40A07740D120DA9740A309811A899B0
:100DAE00B8130CC2983098FDA899C298B811F630B5
:070DBE0099FDC299F599228D
:00000001FF
