:100E510052656D6F7465204465636F64653A002562
:0D0E610031580020202020202020202000DB
:100E8A0004220000000004290000000001280001DB
:020E9A0027002F
:0A0E9D008FA0C280120DDFC2812277
:0A0EA7008FA0D280120DDFC281225D
:060DDF00D2817F057E00B9
:100DE500E4FDFCC3ED9FEC9E5017E4FBFA0BBB0042
:100DF500010AE4B503F7EAB404F30DBD00010C8064
:010E0500E20A
:010E060022C9
:100E2E008B088A09890AAB08AA09A90A120C1EFFA7
:100E3E006010120EA77401250AF50AE43509F509AA
:030E4E0080E4221B
:03000B00020E6E74
:100E6E00C0E0C0D0C3E5289432748094805002054F
:0C0E7E0028758CFC758A67D0D0D0E0325B
:03000300020B5C91
:100B5C00C0E0C0D075D000C000C001C002C003C04E
:100B6C0004C005C006C007852826752800758CFCB6
:100B7C00758A670527E526FB7A00C3943274809446
:100B8C008040117527FE75250075240075230075AE
:100B9C0022008069AF27EF3395E0FEC36480948018
:100BAC00403AEF9420EE648094805030C3EB940272
:100BBC00EA648094804046E47F01FEFDFC741F953E
:100BCC0027F9F8120C48E5254FF525E5244EF524B8
:100BDC00E5234DF523E5224CF5228021AF27EF3399
:100BEC0095E0FEC3EF9420EE64809480400F852541
:100BFC002C85242B85232A852229752700D007D004
:100C0C0006D005D004D003D002D001D000D0D0D073
:020C1C00E032C4
:100D5C007F38120E9D7F0C120E9D7F01120E9D7F0F
:100D6C0080120E9D438901758CFC758A67D28CD2DA
:100D7C00A9D288D2A8D2AF7BFF7A0E7951120E2E4F
:100D8C007FC0120E9DE4FFFEFDFCAB2CAA2BA92A02
:100D9C00A829C3120C3760E8750BFF750C0E750D86
:100DAC0060852C11852B10852A0F85290E7B007AE6
:100DBC0000792D12085C7B007A00792D120E2E7BA7
:100DCC00FF7A0E7964120E2EE4F52CF52BF52AF52C
:030DDC002980ADBE
:03000000020CD01F
:0C0CD000787FE4F6D8FD75814C020D170A
:100C1E00BB010689828A83E0225002E722BBFE02D4
:090C2E00E32289828A83E4932207
:100C3700EB9FF5F0EA9E42F0E99D42F0E89C45F013
:010C4700228A
:100C4800E8600FEFC333FFEE33FEED33FDEC33FC0A
:030C5800D8F122AE
:10080000E517240BF8E60517227808300702780B65
:10081000E475F001120C9A020C1E2000EB7F2ED220
:10082000008018EF540F2490D43440D4FF30040BD0
:10083000EF24BFB41A0050032461FFE518600215CD
:1008400018051BE51B7002051A30070D7808E475C2
:10085000F001120C9AEF020C88020E077403D20703
:100860008003E4C207F5178B088A09890AE4F518A2
:10087000F51AF51BE51860077F2012083B80F57517
:1008800019FFC201C200C202C203C205C206C208E9
:10089000120809FF700D3007057F0012084CAF1BCE
:1008A000AE1A22B4255FC2D5C204120809FF24D0B3
:1008B000B40A00501A75F00A781830D50508B6FF4A
:1008C0000106C6A426F620D5047002D20380D924DE
:1008D000CFB41A00EF5004C2E5D204020A4CD20190
:1008E00080C6D20080C0D20280BCD2D580BAD205E8
:1008F00080B47F2012083B2002077401B518004025
:10090000F1120800FF12083B020874D208D20680D8
:1009100095120800FB120800FA120800F94A4B7001
:1009200006791D7A0B7BFF20022EE518602A7E00D7
:100930008E82758300120C5B60060EEE651970F0F6
:10094000C2D5EBC0E0EAC0E0E9C0E0EE120A93D005
:10095000E0F9D0E0FAD0E0FB120C1EFF60AAEBC079
:10096000E0EAC0E0E9C0E012083BD0E02401F9D0A1
:10097000E03400FAD0E0FBE5190460DCD519D98039
:10098000877BFF7A0A798FD202809C791080027966
:1009900008C206C2088008D2D5790A8004790AC242
:1009A000D5E519047002F519E4FAFDFEFF120800FE
:1009B000FC7B08200113120800FD7B1030000A1296
:1009C0000800FE120800FF7B20EC3382D592D55040
:1009D00013C3E43000069FFFE49EFEE42001039D64
:1009E000FDE49CFCE4CBF8C201EC700CCFCECDCC86
:1009F000E824F8F870F38017C3EF33FFEE33FEED11
:100A000033FDEC33FCEB33FB994002FB0FD8E9EBF1
:100A1000300105F8D0E0C448B201C0E00AEC4D4E08
:100A20004F78207B0070C2EAB5190040BCC0E012CC
:100A30000A95D0F0D0E0200104C4C0E0C4B201C0E7
:100A4000F0120824D0F0D5F0EB020874120CAA09B9
:100A50001153098B5808E24C08DE42098F4F099761
:0F0A60004409974908F743099D550981460981C3
:100A6F00450981470B3D5008E62D08EA2E090D2B4D
:100A7F0008EE23090B200B262A08A64800000905BB
:100A8F003F3F3F00790AA2D5200314300509B91062
:100A9F00020404B9080104A2D52006025001042063
:100AAF0002689202B518005034C0E07F203003195D
:100ABF007F30A20272067205500F120AECC202C2F8
:100ACF0006C205C2087F30800F300503E9C0E0126F
:100ADF00083B300503D0E0F9D0E0B518CC3005174E
:100AEF007F30B9100C12083B7F583004077F788095
:100AFF0003B9080312083B3002057F2D02083B7F24
:100B0F00202008F87F2B2006F322920280CF286E38
:100B1F00756C6C2900D2011208003001F8C20178FF
:100B2F001830D50108F60208A62D5043495812086F
:100B3F00002403B405004001E4900B389312082CF5
:0D0B4F00743A12082CD20375180402098BA9
:100CDC00020D5CE493A3F8E493A34003F68001F2C5
:100CEC0008DFF48029E493A3F85407240CC8C33319
:100CFC00C4540F4420C8834004F456800146F6DFE8
:100D0C00E4800B0102040810204080900E8AE47EDF
:100D1C00019360BCA3FF543F30E509541FFEE493DC
:100D2C00A360010ECF54C025E060A840B8E493A3A3
:100D3C00FAE493A3F8E493A3C8C582C8CAC583CACE
:100D4C00F0A3C8C582C8CAC583CADFE9DEE780BE86
:010E9C000055
:100C5B00BB010CE58229F582E5833AF583E022504E
:100C6B0006E92582F8E622BBFE06E92582F8E22298
:0D0C7B00E58229F582E5833AF583E49322B2
:100C8800BB010689828A83F0225002F722BBFE014B
:020C9800F32245
:100C9A00FAE6FB0808E6F925F0F618E6CA3AF6225B
:100CAA00D083D082F8E4937012740193700DA3A3D9
:100CBA0093F8740193F5828883E4737402936860ED
:060CCA00EFA3A3A380DFED
:100E0700EFB40A07740D120E12740A309811A899DC
:100E1700B8130CC2983098FDA899C298B811F6304B
:070E270099FDC299F5992223
:00000001FF
