:0809BD00021A05E6021C00000D
:10088C0020B71FE4F514F515AF1BAD15E4FB1209E9
:10089C00450515E51570020514C39405E51494007F
:1008AC0040E620B41FE4F514F515AF1DAD15E4FBBF
:1008BC001209450515E51570020514C39405E514D8
:1008CC00940040E620B6B9AF15E4FD1209167E007F
:0A08DC00BE05ADBFE6AAC2B580A6B6
:070983007F1E12098AD2B0A9
:0A098A00E4FEEEC39F50030E80F858
:010994002240
:0F099500C2B0D2B1120983C2B112098AC2B02214
:0F09A400C2B07F1E12098AC2B1120985D2B122D8
:0A09B300C2B1120983C2B0D2B12212
:10096500E4FEEEC3940874809480500FEF3392B187
:0E097500D2B0C2B0EF25E0FF0E80E70209B35A
:1008E600E4FDFCECC394087480948050207F1412BD
:1008F600098AD2B0A2B1E4334205ECC394077480EE
:0F09060094805004ED25E0FDC2B00C80D6AF0503
:0109150022BF
:10094500AC07120995EB25E044A0FF120965AF0538
:10095500120965AF041209651209A47F0A02098A02
:02091600AC072C
:10091800120995ED25E044A0FF120965AF041209FC
:1009280065120995ED25E044A1FF1209651208E654
:0C093800AD071209A47F0512098AAF0563
:010944002290
:03000000020800F3
:0C080000787FE4F6D8FD75811D020847E2
:10080C0002088CE493A3F8E493A34003F68001F26E
:10081C0008DFF48029E493A3F85407240CC8C333ED
:10082C00C4540F4420C8834004F456800146F6DFBC
:10083C00E4800B01020408102040809009BDE47E86
:10084C00019360BCA3FF543F30E509541FFEE493B1
:10085C00A360010ECF54C025E060A840B8E493A378
:10086C00FAE493A3F8E493A3C8C582C8CAC583CAA3
:10087C00F0A3C8C582C8CAC583CADFE9DEE780BE5B
:0109C5000031
:00000001FF
